:020000020000FC
:0200000010C02E
:1000200032C00FEF07B90FEF04B903E005BD01E0DF
:1000300000936E00789410E021E04FE35FE332E03C
:100040001395012FEAEDF0E0A0E0B1E0C8950D9224
:10005000402D31960A95D1F71B3029F02DD02CD0A8
:10006000EFCF20E0EDCF10E02395022FEAEDF0E096
:10007000A0E0B1E0C8950D92502D31960A95D1F7C8
:100080002A3079F3DDCF33E038B931E038B955B9EA
:1000900005D004D032E038B945B9189574E67A95A0
:1000A0000000000000000000000000000000000050
:1000B00000000000A1F708957FEF8BE47A9500001F
:1000C0000000000000000000000000000000000030
:1000D0000000A1F78A9591F708953F065B4F666D82
:0400E0007D077F67B2
:00000001FF
